{
  "contractName": "Storage",
  "abi": [
    {
      "constant": false,
      "inputs": [
        {
          "internalType": "uint256",
          "name": "num",
          "type": "uint256"
        }
      ],
      "name": "store",
      "outputs": [],
      "payable": false,
      "stateMutability": "nonpayable",
      "type": "function"
    },
    {
      "constant": true,
      "inputs": [],
      "name": "retreive",
      "outputs": [
        {
          "internalType": "uint256",
          "name": "",
          "type": "uint256"
        }
      ],
      "payable": false,
      "stateMutability": "view",
      "type": "function"
    }
  ],
  "bytecode": "0x608060405234801561001057600080fd5b5060c68061001f6000396000f3fe6080604052348015600f57600080fd5b506004361060325760003560e01c80636057361d146037578063b05784b8146062575b600080fd5b606060048036036020811015604b57600080fd5b8101908080359060200190929190505050607e565b005b60686088565b6040518082815260200191505060405180910390f35b8060008190555050565b6000805490509056fea265627a7a72315820ce9441c839df35a6994d3a0fb2c24331f6d45a34295a4e9bad91c379f4109e3964736f6c63430005100032",
  "source": "// SPDX-License-Identifier: MIT\r\npragma solidity >=0.4.21 <0.7.0;\r\n\r\n/**\r\n * @title Storage\r\n * @dev Store & retreive value in a variable\r\n */\r\ncontract Storage {\r\n\r\n    uint256 number;\r\n\r\n    /**\r\n     * @dev Store value in variable\r\n     * @param num value to store\r\n     */\r\n    function store(uint256 num) public {\r\n        number = num;\r\n    }\r\n\r\n    /**\r\n    * @dev Return value     * @return value of 'number'\r\n     */\r\n    function retreive() public view returns (uint256){\r\n        return number;\r\n    }\r\n}",
  "sourcePath": "C:/Users/vip/Documents/truffle/contracts/Storage.sol",
  "compiler": {
    "name": "solc",
    "version": "0.5.16+commit.9c3226ce.Emscripten.clang"
  },
  "schemaVersion": "3.2.2",
  "updatedAt": "2020-07-23T02:33:28.311Z",
  "networkType": "ethereum",
  "devdoc": {
    "details": "Store & retreive value in a variable",
    "methods": {
      "retreive()": {
        "details": "Return value     * @return value of 'number'"
      },
      "store(uint256)": {
        "details": "Store value in variable",
        "params": {
          "num": "value to store"
        }
      }
    },
    "title": "Storage"
  },
  "userdoc": {
    "methods": {}
  }
}